S00D000046696E616C2E737265632D
S113000071C0000081C000007FC000007DC00000FE
S11300107BC0000079C0000077C0000075C00000FC
S113002073C0000071C000006FC000006DC000000C
S11300306BC0000069C0000067C0000065C000001C
S113004063C0000061C000005FC000005DC000002C
S11300505BC0000059C0000057C0000055C000003C
S113006053C0000051C000004FC000004DC000004C
S11300704BC0000049C0000047C0000045C000005C
S113008043C0000041C000003FC000003DC000006C
S11300903BC0000039C0000037C0000035C000007C
S11300A033C0000031C000002FC000002DC000008C
S11300B02BC0000029C0000027C0000025C000009C
S11300C023C0000021C000001FC000001DC00000AC
S11300D01BC0000019C0000017C0000015C00000BC
S11300E013C0000011241FBECFEFD1E2DEBFCDBF8D
S11300F000E00CBF22E0A0E0B2E001C01D92A431F8
S1130100B207E1F74AD04DC07BCF1092C000A1ECFA
S1130110B0E01C92E2ECF0E010828C9180618C9350
S11301208C9188608C9380818260808380818460DC
S1130130808387E690E09093C5008093C40008957F
S1130140E0ECF0E0908195FFFDCF8093C600089528
S1130150CF93DF93EC018881882329F02196F0DF87
S113016089918111FCCFDF91CF91089580E090E0D7
S1130170DC01E0ECF0E003C00196A11DB11D20817B
S11301802223D4F78F3F2FEF9207A207B207A1F7DC
S11301901092000280E092E00895B7DFE7DFD8DF35
S10901A0FDCFF894FFCF2F
S9030000FC
