:1000000071C0000086C0000084C0000082C00000F3
:1000100080C000007EC000007CC000007AC00000EC
:1000200078C0000076C0000074C0000072C00000FC
:1000300070C000006EC000006CC000006AC000000C
:1000400068C0000066C0000064C0000062C000001C
:1000500060C000005EC000005CC000005AC000002C
:1000600058C0000056C0000054C0000052C000003C
:1000700050C000004EC000004CC000004AC000004C
:1000800048C0000046C0000044C0000042C000005C
:1000900040C000003EC000003CC000003AC000006C
:1000A00038C0000036C0000034C0000032C000007C
:1000B00030C000002EC000002CC000002AC000008C
:1000C00028C0000026C0000024C0000022C000009C
:1000D00020C000001EC000001CC000001AC00000AC
:1000E00018C0000011241FBECFEFD1E2DEBFCDBF8C
:1000F00000E00CBF12E0A0E0B2E0ECEDF8E000E0C0
:100100000BBF02C007900D92A630B107D9F7EAD015
:10011000E3C376CF21E033272817390709F4089580
:1001200022272817390779F0019700000000000006
:1001300021E033272817390729F0000000000000CC
:100140000000F2CF08958FEF9FEF00000000000045
:10015000000000000000000000000000000000009F
:10016000E3CFCF93DF93FC01EB01DF7777231CF420
:100170008DE2808302C080E280839E01ADECBCEC06
:10018000D3D0AC01569547955695479556954795CA
:10019000CA01880F991F440F551F440F551F440F64
:1001A000551F480F591FCE01841B950B9F938F93AA
:1001B000BBD09695879596958795969587959F93AD
:1001C0008F9380E092E09F938F933196FF93EF930C
:1001D000BAD08DB79EB708960FB6F8949EBF0FBEE3
:1001E0008DBFDF91CF9108959FB191708FB18170D4
:1001F0008917E1F308950F931F93CF93DF937894BA
:10020000809A81B311BA8FE19EE40197F1F700C0A3
:1002100000008098889AE8DFE7DFE6DFC0E1D0E001
:10022000E3DF88E277DF789B02C088E273DF219703
:10023000B9F7C0E1D0E000E010E0D6DF88E26ADF85
:10024000789B06C0000F111F016088E263DF02C0C7
:10025000000F111F219789F70AC0C6DF88E25ADF15
:10026000789B02C088E256DF2197B9F703C0C8E047
:10027000D0E0F3CFF894C801DF91CF911F910F9197
:1002800008951092C000A1ECB0E01C92E2ECF0E006
:1002900010828C9180618C938C9188608C9380818A
:1002A0008260808380818460808387E690E0909381
:1002B000C5008093C4000895E0ECF0E0908195FFC4
:1002C000FDCF8093C6000895CF93DF93EC01888122
:1002D000882329F02196F0DF89918111FCCFDF91ED
:1002E000CF910895CF93DF9300D000D0CDB7DEB784
:1002F0002FEF83ED90E3215080409040E1F700C064
:100300000000BFDF78DFBC01CE0101962ADFCE01FD
:100310000196DADF2FEF83ED90E32150804090408B
:10032000E1F700C00000EECFA29FB001B39FC00173
:10033000A39F700D811D1124911DB29F700D811D11
:100340001124911D08950F931F93CF93DF93CDB781
:10035000DEB72E970FB6F894DEBF0FBECDBF0E8965
:100360001F8986E08C831A8309838FEF9FE79E8322
:100370008D83AE01465E5F4F688D798DCE0101960B
:1003800011D02F813885F801E20FF31F10822E96CD
:100390000FB6F894DEBF0FBECDBFDF91CF911F9196
:1003A0000F9108952F923F924F925F926F927F929A
:1003B0008F929F92AF92BF92CF92DF92EF92FF9275
:1003C0000F931F93CF93DF93CDB7DEB72C970FB664
:1003D000F894DEBF0FBECDBF7C016B018A01FC012A
:1003E00017821682838181FFB0C1CE0101964C0134
:1003F000F7019381F60193FD859193FF81916F0140
:10040000882309F49EC1853239F493FD859193FFC9
:1004100081916F01853221F4B70190E0C7D1E8CF17
:10042000512C312C20E02032A0F48B3269F030F4D2
:10043000803259F0833269F420612CC08D3239F05A
:10044000803339F4216026C02260246023C02860F4
:1004500021C027FD27C030ED380F3A3078F426FF51
:1004600006C0FAE05F9E300D1124532E13C08AE0BF
:10047000389E300D1124332E20620CC08E3221F4B0
:1004800026FD5FC1206406C08C3611F4206802C0CE
:10049000883641F4F60193FD859193FF81916F01B8
:1004A0008111C1CF982F9F7D9554933028F40C5F14
:1004B0001F4FFFE3F9830DC0833631F0833771F0AE
:1004C000833509F057C021C0F801808189830E5F10
:1004D0001F4F44244394512C540114C03801F2E0BE
:1004E0006F0E711CF801A080B18026FF03C0652D3E
:1004F00070E002C06FEF7FEFC5012C874CD12C015B
:1005000083012C852F77222E16C03801F2E06F0E62
:10051000711CF801A080B18026FF03C0652D70E03A
:1005200002C06FEF7FEFC5012C872AD12C012C85EB
:100530002068222E830123FC19C0832D90E04816E9
:100540005906A0F4B70180E290E030D13A94F5CF9B
:10055000F50127FC859127FE81915F01B70190E0AD
:1005600025D131103A94F1E04F1A51084114510449
:1005700079F7DEC0843611F0893631F5F80127FFAE
:1005800007C060817181828193810C5F1F4F08C019
:1005900060817181072E000C880B990B0E5F1F4F35
:1005A0002F76722E97FF09C0909580957095619572
:1005B0007F4F8F4F9F4F2068722E2AE030E0A401BA
:1005C0002DD1A82EA81843C0853729F42F7EB22E2E
:1005D0002AE030E025C0F22FF97FBF2E8F36C1F020
:1005E00018F4883579F0ADC0803719F0883721F0DC
:1005F000A8C02F2F2061B22EB4FE0DC08B2D8460B9
:10060000B82E09C024FF0AC09F2F9660B92E06C0DD
:1006100028E030E005C020E130E002C020E132E017
:10062000F801B7FE07C060817181828193810C5F00
:100630001F4F06C06081718180E090E00E5F1F4F08
:10064000A401ECD0A82EA818FB2DFF777F2E76FEF4
:100650000BC0372D3E7FA51450F474FE0AC072FC07
:1006600008C0372D3E7E05C0BA2C372D03C0BA2CEA
:1006700001C0B52C34FF0DC0FE01EA0DF11D8081D3
:10068000803311F4397E09C032FF06C0B394B394AD
:1006900004C0832F867809F0B39433FD12C030FF75
:1006A00006C05A2CB31418F4530C5B18B32CB314B3
:1006B00060F4B70180E290E03C8778D0B3943C8549
:1006C000F6CFB31410F43B1801C0312C34FF11C025
:1006D000B70180E390E03C8769D03C8532FF16C0CB
:1006E00031FD03C088E790E002C088E590E0B701E3
:1006F0000CC0832F867851F031FF02C08BE201C01D
:1007000080E237FD8DE2B70190E050D0A51430F4BF
:10071000B70180E390E04AD05A94F8CFAA94F4014C
:10072000EA0DF11D8081B70190E040D0A110F6CF15
:10073000332009F45DCEB70180E290E037D03A94DF
:10074000F7CFF7018681978102C08FEF9FEF2C963C
:100750000FB6F894DEBF0FBECDBFDF91CF911F91D2
:100760000F91FF90EF90DF90CF90BF90AF909F9050
:100770008F907F906F905F904F903F902F90089553
:10078000FC010590615070400110D8F7809590955C
:100790008E0F9F1F0895FC01615070400190011061
:1007A000D8F7809590958E0F9F1F08950F931F93F4
:1007B000CF93DF93FB01238121FD03C08FEF9FEFD8
:1007C00028C022FF16C046815781248135814217F7
:1007D000530744F4A081B1819D012F5F3F4F3183C6
:1007E00020838C93268137812F5F3F4F3783268369
:1007F00010C0EB01092F182F0084F185E02D199509
:10080000892BE1F68E819F8101969F838E83812FB4
:10081000902FDF91CF911F910F910895FA01AA2790
:10082000283051F1203181F1E8946F936E7F6E5F33
:100830007F4F8F4F9F4FAF4FB1E03ED0B4E03CD0E1
:10084000670F781F891F9A1FA11D680F791F8A1FC4
:10085000911DA11D6A0F711D811D911DA11D20D02B
:1008600009F468943F912AE0269F11243019305DE5
:100870003193DEF6CF010895462F4770405D4193D6
:10088000B3E00FD0C9F7F6CF462F4F70405D4A3323
:1008900018F0495D31FD4052419302D0A9F7EACFEB
:1008A000B4E0A6959795879577956795BA95C9F71A
:1008B00000976105710508959B01AC010A2E06940D
:1008C0005795479537952795BA95C9F7620F731FC6
:0C08D000841F951FA01D0895F894FFCF11
:0608DC0025642E256400D6
:00000001FF
