:1000000071C000008EC000008CC000008AC00000DB
:1000100088C0000086C0000084C0000082C00000CC
:1000200080C000007EC000007CC000007AC00000DC
:1000300078C0000076C0000074C0000072C00000EC
:1000400070C000006EC000006CC000006AC00000FC
:1000500068C0000066C0000064C0000062C000000C
:1000600060C0000018C100005CC000005AC0000061
:1000700058C0000056C0000054C0000052C000002C
:1000800050C000004EC000004CC000004AC000003C
:1000900048C0000046C0000044C0000042C000004C
:1000A00040C000003EC000003CC000003AC000005C
:1000B00038C0000036C0000034C0000032C000006C
:1000C00030C000002EC000002CC000002AC000007C
:1000D00028C0000026C0000024C0000022C000008C
:1000E00020C0000011241FBECFEFD1E2DEBFCDBF84
:1000F00000E00CBF12E0A0E0B2E0E8EFF3E000E0C7
:100100000BBF02C007900D92AA31B107D9F722E0C8
:10011000AAE1B2E001C01D92A538B207E1F736D0DE
:1001200069C16ECF1092C000E1ECF0E01082A2EC49
:10013000B0E01C92808180618083808188608083B0
:100140008081806880838C9182608C938C918460A4
:100150008C9387E690E09093C5008093C400089547
:10016000E0ECF0E0908195FFFDCF8093C60008950C
:10017000CF93DF93EC018881882329F02196F0DF6B
:1001800089918111FCCFDF91CF910895CF93DF93B7
:1001900000D01F92CDB7DEB72FEF83ED90E3215053
:1001A00080409040E1F700C00000BCDF78940F2E43
:1001B000FDE0CF2ED12CF02D812C912C20911E0210
:1001C0002223E1F3F89461E272E08B2D9A2DD6D0D0
:1001D0008B2D9A2DCDDF10921E02DC82CB82BE01C8
:1001E0006D5F7F4F8B2D9A2DB2D0B82EA92E209106
:1001F0001F023091200212161306A4F4E82EF92EE5
:10020000082D192DF701808190E099D0F701819395
:100210007F010F5F1F4F20911F02309120020217B4
:10022000130784F343E050E066E072E08B2D9A2DD3
:10023000ACD0892B71F566E072E08B2D9A2D95D0AC
:10024000892B39F16AE072E08B2D9A2D8ED0892BA3
:1002500001F161E172E08B2D9A2D87D0892BC9F0D5
:100260006DE370E08B2D9A2D75D0892B91F08DE385
:1002700090E09A838983BE016F5F7F4F8B2D9A2D0B
:1002800066D0B82EA92EBE016F5F7F4F882D992DA5
:100290005ED0789493CF1F920F920FB60F921124D5
:1002A0000BB60F928F939F93EF93FF93E0911C02F5
:1002B000F0911D028091C600EF5DFD4F8083E091BB
:1002C0001C02F0911D02EF5DFD4F80818A3091F09C
:1002D000E0911C02F0911D02EF5DFD4F80818D3099
:1002E00049F0E0911C02F0911D02EF5DFD4F80810D
:1002F000811111C081E080931E0280911C029091B7
:100300001D0201979093200280931F0210921D02FC
:1003100010921C0209C080911C0290911D0201964E
:1003200090931D0280931C02FF91EF919F918F91FA
:100330000F900BBE0F900FBE0F901F90189591114C
:10034000089581548A5108F4805E855A08954AE1DF
:1003500052E029C0FC018191861721F08823D9F74A
:10036000992708953197CF010895FB01DC018D9104
:10037000019080190110D9F3990B0895FB01DC015C
:1003800001900D920020E1F70895FB01DC0141503E
:10039000504030F08D910190801919F40020B9F788
:1003A000881B990B0895FA01A191B081009719F467
:1003B0001097E1F0CD01DC01CD010D90002011F48A
:1003C000C00113C0FB012191222319F02015D9F798
:1003D000F3CFFB012191201519F41E92119606C04E
:1003E0002223C1F70D900020A1F7D001FA01A193BB
:0803F000B0830895F894FFCFDB
:1003F80025642E25640073657400736574206F6E20
:0A04080000736574206F6666000043
:00000001FF
