S00D000046696E616C2E737265632D
S113000071C0000079C0000077C0000075C0000016
S113001073C0000071C000006FC000006DC000001C
S11300206BC0000069C0000067C0000065C000002C
S113003063C0000061C000005FC000005DC000003C
S11300405BC0000059C0000057C0000055C000004C
S113005053C0000051C000004FC000004DC000005C
S11300604BC0000049C0000047C0000045C000006C
S113007043C0000041C000003FC000003DC000007C
S11300803BC0000039C0000037C0000035C000008C
S113009033C0000031C000002FC000002DC000009C
S11300A02BC0000029C0000027C0000025C00000AC
S11300B023C0000021C000001FC000001DC00000BC
S11300C01BC0000019C0000017C0000015C00000CC
S11300D013C0000011C000000FC000000DC00000DC
S11300E00BC0000011241FBECFEFD1E2DEBFCDBF95
S11300F000E00CBF8DD0AAC083CF21E0332728179E
S1130100390709F4089522272817390779F0019748
S113011000000000000021E033272817390729F0E8
S11301200000000000000000F2CF08958FEF9FEF61
S113013000000000000000000000000000000000BB
S1130140000000000000E3CF9FB191708FB1817077
S11301508917E1F308950F931F93CF93DF93789456
S1130160809A81B311BA8FE19EE40197F1F700C040
S113017000008098889AE8DF80E5BFDF85E5BDDF71
S1130180C0E1D0E0E1DF88E2B8DF789B02C088E21A
S1130190B4DF2197B9F7C0E1D0E000E010E0D4DF8C
S11301A088E2ABDF789B06C0000F111F016088E274
S11301B0A4DF02C0000F111F219789F7F894C8012A
S11301C0DF91CF911F910F9108951092C000A1EC7F
S11301D0B0E01C92E2ECF0E010828C9180618C9390
S11301E08C9188608C93808182608083808184601C
S11301F0808387E690E09093C5008093C4000895BF
S1130200E0ECF0E0908195FFFDCF8093C600089567
S11302102FEF83ED90E3215080409040E1F700C040
S11302200000D3DF98DFC82F892FEADF8C2FE8DFA7
S113023080E2E6DF8AE0E4DF2FEF83ED90E32150F4
S113024080409040E1F700C00000ECCFF894FFCF6D
S9030000FC
