:1000000071C000008EC000008CC000008AC00000DB
:1000100088C0000086C0000084C0000082C00000CC
:1000200080C000007EC000007CC000007AC00000DC
:1000300078C0000076C0000074C0000072C00000EC
:1000400070C000006EC000006CC000006AC00000FC
:1000500068C0000066C0000064C0000062C000000C
:1000600060C00000A8C000005CC000005AC00000D2
:1000700058C0000056C0000054C0000052C000002C
:1000800050C000004EC000004CC000004AC000003C
:1000900048C0000046C0000044C0000042C000004C
:1000A00040C000003EC000003CC000003AC000005C
:1000B00038C0000036C0000034C0000032C000006C
:1000C00030C000002EC000002CC000002AC000007C
:1000D00028C0000026C0000024C0000022C000008C
:1000E00020C0000011241FBECFEFD1E2DEBFCDBF84
:1000F00000E00CBF12E0A0E0B2E0E2E6F2E000E0D7
:100100000BBF02C007900D92A030B107D9F722E0D3
:10011000A0E0B2E001C01D92A936B207E1F736D0E7
:100120009EC06ECF1092C000E1ECF0E01082A2EC15
:10013000B0E01C92808180618083808188608083B0
:100140008081806880838C9182608C938C918460A4
:100150008C9387E690E09093C5008093C400089547
:10016000E0ECF0E0908195FFFDCF8093C60008950C
:10017000CF93DF93EC018881882329F02196F0DF6B
:1001800089918111FCCFDF91CF9108952FEF83EDFD
:1001900090E3215080409040E1F700C00000C2DFB2
:1001A0007894809104028823E1F385E092E0E0DF17
:1001B00010920402F6CF1F920F920FB60F921124E5
:1001C0000BB60F928F939F93EF93FF93E0910202F0
:1001D000F09103028091C600EB5FFD4F8083E091B8
:1001E0000202F0910302EB5FFD4F80818A3091F0B3
:1001F000E0910202F0910302EB5FFD4F80818D30B0
:1002000049F0E0910202F0910302EB5FFD4F808123
:10021000811111C081E080930402809102029091CB
:10022000030201979093010280930002109203024F
:100230001092020209C0809102029091030201967D
:100240009093030280930202FF91EF919F918F910F
:100250000F900BBE0F900FBE0F901F901895F89443
:02026000FFCFCE
:00000001FF
