:1000000071C000008EC000008CC000008AC00000DB
:1000100088C0000086C0000084C0000082C00000CC
:1000200080C000007EC000007CC000007AC00000DC
:1000300078C0000076C0000074C0000072C00000EC
:1000400070C000006EC000006CC000006AC00000FC
:1000500068C0000066C0000064C0000062C000000C
:1000600060C000005EC000005CC000005AC000001C
:1000700058C0000056C0000054C0000052C000002C
:1000800050C000004EC000004CC000004AC000003C
:1000900048C0000046C0000044C0000042C000004C
:1000A00040C000003EC000003CC000003AC000005C
:1000B00038C0000036C0000034C0000032C000006C
:1000C00030C000002EC000002CC000002AC000007C
:1000D00028C0000026C0000024C0000022C000008C
:1000E00020C0000011241FBECFEFD1E2DEBFCDBF84
:1000F00000E00CBF12E0A0E0B2E0E8EEFDE000E0BE
:100100000BBF02C007900D92AE30B107D9F722E0C5
:10011000AEE0B2E001C01D92AF30B207E1F753D1BB
:1001200061C66ECF21E033272817390709F40895F7
:1001300022272817390779F00197000000000000F6
:1001400021E033272817390729F0000000000000BC
:100150000000F2CF08958FEF9FEF00000000000035
:10016000000000000000000000000000000000008F
:10017000E3CFCF92DF92EF92FF926B017C01819AE5
:100180009B01AC016091040270910502809106020E
:1001900090910702C4D218162CF4899A81E08093BA
:1001A0000E0212C020910002309101024091020221
:1001B00050910302C701B601B2D218162CF481B3D4
:1001C0008C7F81BB10920E02FF90EF90DF90CF905A
:1001D0000895CF93DF93EC01BC017F7780E090E03E
:1001E00010D220E030E040E251E477D126E636E656
:1001F00046EE5FE398D220E030E040E052E409D1DF
:10020000DD230CF49058DF91CF910895CF92DF92C7
:10021000EF92FF920F931F93CF93DF93EC018B012B
:100220007F7780E090E0EDD126E636E646EE5FE3AC
:100230007AD220E030E040EA53E4EBD0B6D16B0153
:100240007C0111231CF48DE2888302C080E2888344
:100250009601ADECBCECEED2AC01569547955695A7
:10026000479556954795CA01880F991F440F551F0A
:10027000440F551F440F551F480F591FC601841BBB
:10028000950B9F938F93D6D2969587959695879544
:10029000969587959F938F9388E092E09F938F9395
:1002A0002196DF93CF93D5D28DB79EB708960FB620
:1002B000F8949EBF0FBE8DBFDF91CF911F910F911C
:1002C000FF90EF90DF90CF9008959FB191708FB124
:1002D00081708917E1F308950F931F93CF93DF93F4
:1002E0007894809A81B311BA8FE19EE40197F1F777
:1002F00000C000008098889AE8DFE7DFE6DFC0E111
:10030000D0E0E3DF88E20EDF789B02C088E20ADFFC
:100310002197B9F7C0E1D0E000E010E0D6DF88E235
:1003200001DF789B06C0000F111F016088E2FADE32
:1003300002C0000F111F219789F70AC0C6DF88E2AB
:10034000F1DE789B02C088E2EDDE2197B9F703C0A9
:10035000C8E0D0E0F3CFF894C801DF91CF911F91AE
:100360000F9108951092C000A1ECB0E01C92E2EC55
:10037000F0E010828C9180618C938C9188608C93DA
:1003800080818260808380818460808387E690E0C2
:100390009093C5008093C4000895E0ECF0E0908154
:1003A00095FFFDCF8093C6000895CF93DF93EC01B6
:1003B0008881882329F02196F0DF89918111FCCF73
:1003C000DF91CF910895CF93DF9300D000D0CDB7C8
:1003D000DEB72FEF83ED90E3215080409040E1F7AE
:1003E00000C00000BFDF78DF8C01F3DEC2DEB801A1
:1003F000CE0101960BDFCE010196D7DF2FEF83ED03
:1004000090E3215080409040E1F700C00000EBCF26
:100410005058BB27AA270ED048C139D130F03ED161
:1004200020F031F49F3F11F41EF42EC10EF4E0953C
:10043000E7FB24C1E92F4AD180F3BA17620773079B
:100440008407950718F071F49EF562C10EF4E095EB
:100450000B2EBA2FA02D0B01B90190010C01CA017E
:10046000A0011124FF27591B99F0593F50F4503E29
:1004700068F11A16F040A22F232F342F4427585F1B
:10048000F3CF469537952795A795F0405395C9F733
:100490007EF41F16BA0B620B730B840BBAF09150EB
:1004A000A1F0FF0FBB1F661F771F881FC2F70EC08A
:1004B000BA0F621F731F841F48F48795779567955D
:1004C000B795F7959E3F08F0B3CF9395880F08F046
:1004D0009927EE0F9795879508950CD0E6C0DED04A
:1004E00040F0D5D030F021F45F3F19F0C7C0511172
:1004F00010C1CAC0EBD098F39923C9F35523B1F3C7
:10050000951B550BBB27AA2762177307840738F082
:100510009F5F5F4F220F331F441FAA1FA9F333D0E1
:100520000E2E3AF0E0E830D091505040E695001C95
:10053000CAF729D0FE2F27D0660F771F881FBB1F51
:10054000261737074807AB07B0E809F0BB0B802D2B
:10055000BF01FF2793585F4F2AF09E3F510568F077
:100560008DC0D7C05F3FECF3983EDCF3869577955E
:100570006795B795F7959F5FC9F7880F911D969579
:10058000879597F90895E1E0660F771F881FBB1FD5
:10059000621773078407BA0720F0621B730B840B82
:1005A000BA0BEE1F88F7E095089598D088F09F5712
:1005B00090F0B92F9927B751A0F0D1F0660F771FAF
:1005C000881F991F1AF0BA95C9F712C0B13081F08F
:1005D0009FD0B1E008959CC0672F782F8827B85F1F
:1005E00039F0B93FCCF3869577956795B395D9F7F0
:1005F0003EF490958095709561957F4F8F4F9F4FFA
:100600000895E89409C097FB3EF490958095709505
:1006100061957F4F8F4F9F4F9923A9F0F92F96E94E
:10062000BB279395F695879577956795B795F111C3
:10063000F8CFFAF4BB0F11F460FF1BC06F5F7F4F60
:100640008F4F9F4F16C0882311F096E911C0772372
:1006500021F09EE8872F762F05C0662371F096E87B
:10066000862F70E060E02AF09A95660F771F881F4A
:10067000DAF7880F9695879597F9089597F99F6708
:1006800080E870E060E008959FEF80EC089500241A
:100690000A941616170618060906089500240A94E7
:1006A00012161306140605060895092E0394000C6D
:1006B00011F4882352F0BB0F40F4BF2B11F460FFFC
:1006C00004C06F5F7F4F8F4F9F4F089557FD905825
:1006D000440F551F59F05F3F71F04795880F97FB06
:1006E000991F61F09F3F79F08795089512161306C0
:1006F0001406551FF2CF4695F1DF08C016161706EF
:100700001806991FF1CF8695710561050894089523
:10071000E894BB2766277727CB0197F9089566D021
:1007200008F48FEF08950BD0C0CFB1DF28F0B6DF0B
:1007300018F0952309F0A2CFA7CF1124EACFC6DF86
:10074000A0F3959FD1F3950F50E0551F629FF001E4
:10075000729FBB27F00DB11D639FAA27F00DB11D3D
:10076000AA1F649F6627B00DA11D661F829F2227C6
:10077000B00DA11D621F739FB00DA11D621F839F4D
:10078000A00D611D221F749F3327A00D611D231F23
:10079000849F600D211D822F762F6A2F11249F5771
:1007A00050408AF0E1F088234AF0EE0FFF1FBB1F94
:1007B000661F771F881F91505040A9F79E3F510533
:1007C00070F05CCFA6CF5F3FECF3983EDCF38695EC
:1007D00077956795B795F795E7959F5FC1F7FE2BDE
:1007E000880F911D9695879597F90895990F0008A0
:1007F000550FAA0BE0E8FEEF16161706E807F907F3
:10080000C0F012161306E407F50798F0621B730B8D
:10081000840B950B39F40A2661F0232B242B252B0E
:1008200021F408950A2609F4A140A6958FEF811DB1
:10083000811D0895A29FB001B39FC001A39F700DB9
:10084000811D1124911DB29F700D811D1124911DD8
:1008500008950F931F93CF93DF93CDB7DEB72E97F5
:100860000FB6F894DEBF0FBECDBF0E891F8986E09C
:100870008C831A8309838FEF9FE79E838D83AE015C
:10088000465E5F4F688D798DCE01019611D02F8124
:100890003885F801E20FF31F10822E960FB6F894F8
:1008A000DEBF0FBECDBFDF91CF911F910F91089595
:1008B0002F923F924F925F926F927F928F929F9270
:1008C000AF92BF92CF92DF92EF92FF920F931F935E
:1008D000CF93DF93CDB7DEB72C970FB6F894DEBF7A
:1008E0000FBECDBF7C016B018A01FC01178216820D
:1008F000838181FFB0C1CE0101964C01F701938144
:10090000F60193FD859193FF81916F01882309F48E
:100910009EC1853239F493FD859193FF81916F01DA
:10092000853221F4B70190E0C7D1E8CF512C312CAA
:1009300020E02032A0F48B3269F030F4803259F09C
:10094000833269F420612CC08D3239F0803339F460
:10095000216026C02260246023C0286021C027FDBA
:1009600027C030ED380F3A3078F426FF06C0FAE0A1
:100970005F9E300D1124532E13C08AE0389E300D37
:100980001124332E20620CC08E3221F426FD5FC16B
:10099000206406C08C3611F4206802C0883641F409
:1009A000F60193FD859193FF81916F018111C1CF74
:1009B000982F9F7D9554933028F40C5F1F4FFFE3D1
:1009C000F9830DC0833631F0833771F0833509F038
:1009D00057C021C0F801808189830E5F1F4F4424D6
:1009E0004394512C540114C03801F2E06F0E711C75
:1009F000F801A080B18026FF03C0652D70E002C021
:100A00006FEF7FEFC5012C874CD12C0183012C8522
:100A10002F77222E16C03801F2E06F0E711CF801FC
:100A2000A080B18026FF03C0652D70E002C06FEF8B
:100A30007FEFC5012C872AD12C012C852068222E1E
:100A4000830123FC19C0832D90E048165906A0F4B9
:100A5000B70180E290E030D13A94F5CFF50127FC60
:100A6000859127FE81915F01B70190E025D131107A
:100A70003A94F1E04F1A51084114510479F7DEC05D
:100A8000843611F0893631F5F80127FF07C06081FF
:100A90007181828193810C5F1F4F08C060817181D9
:100AA000072E000C880B990B0E5F1F4F2F76722EAE
:100AB00097FF09C090958095709561957F4F8F4FF6
:100AC0009F4F2068722E2AE030E0A4012DD1A82E7D
:100AD000A81843C0853729F42F7EB22E2AE030E0D3
:100AE00025C0F22FF97FBF2E8F36C1F018F488355C
:100AF00079F0ADC0803719F0883721F0A8C02F2FCA
:100B00002061B22EB4FE0DC08B2D8460B82E09C0BA
:100B100024FF0AC09F2F9660B92E06C028E030E05F
:100B200005C020E130E002C020E132E0F801B7FE6C
:100B300007C060817181828193810C5F1F4F06C065
:100B40006081718180E090E00E5F1F4FA401ECD0C6
:100B5000A82EA818FB2DFF777F2E76FE0BC0372D11
:100B60003E7FA51450F474FE0AC072FC08C0372DF5
:100B70003E7E05C0BA2C372D03C0BA2C01C0B52C5F
:100B800034FF0DC0FE01EA0DF11D8081803311F4A8
:100B9000397E09C032FF06C0B394B39404C0832FDA
:100BA000867809F0B39433FD12C030FF06C05A2C8A
:100BB000B31418F4530C5B18B32CB31460F4B701DE
:100BC00080E290E03C8778D0B3943C85F6CFB314B4
:100BD00010F43B1801C0312C34FF11C0B70180E381
:100BE00090E03C8769D03C8532FF16C031FD03C0E0
:100BF00088E790E002C088E590E0B7010CC0832F41
:100C0000867851F031FF02C08BE201C080E237FDEF
:100C10008DE2B70190E050D0A51430F4B70180E325
:100C200090E04AD05A94F8CFAA94F401EA0DF11D4D
:100C30008081B70190E040D0A110F6CF332009F4B5
:100C40005DCEB70180E290E037D03A94F7CFF7015C
:100C50008681978102C08FEF9FEF2C960FB6F89494
:100C6000DEBF0FBECDBFDF91CF911F910F91FF90DF
:100C7000EF90DF90CF90BF90AF909F908F907F903C
:100C80006F905F904F903F902F900895FC010590DA
:100C9000615070400110D8F7809590958E0F9F1F7E
:100CA0000895FC016150704001900110D8F78095C3
:100CB00090958E0F9F1F08950F931F93CF93DF93EF
:100CC000FB01238121FD03C08FEF9FEF28C022FF8E
:100CD00016C046815781248135814217530744F459
:100CE000A081B1819D012F5F3F4F318320838C9381
:100CF000268137812F5F3F4F3783268310C0EB015A
:100D0000092F182F0084F185E02D1995892BE1F624
:100D10008E819F8101969F838E83812F902FDF91FB
:100D2000CF911F910F910895FA01AA27283051F110
:100D3000203181F1E8946F936E7F6E5F7F4F8F4F0C
:100D40009F4FAF4FB1E03ED0B4E03CD0670F781F6B
:100D5000891F9A1FA11D680F791F8A1F911DA11D50
:100D60006A0F711D811D911DA11D20D009F4689489
:100D70003F912AE0269F11243019305D3193DEF631
:100D8000CF010895462F4770405D4193B3E00FD0E7
:100D9000C9F7F6CF462F4F70405D4A3318F0495DD2
:100DA00031FD4052419302D0A9F7EACFB4E0A695B5
:100DB0009795879577956795BA95C9F700976105D7
:100DC000710508959B01AC010A2E0694579547952D
:100DD00037952795BA95C9F7620F731F841F951F22
:080DE000A01D0895F894FFCF57
:0E0DE8000000A1420000A04225642E256400F8
:00000001FF
