:100000008FC00000ADC00000ABC00000A9C0000060
:10001000A7C00000A5C00000A3C00000A1C0000050
:100020009FC000009DC000009BC0000099C0000060
:1000300097C0000095C0000093C0000091C0000070
:100040008FC000008DC000008BC0000089C0000080
:1000500087C0000080C7000083C0000081C000008E
:100060007FC0000037C400007BC0000079C00000E2
:1000700077C0000075C0000073C0000071C00000B0
:100080006FC000006DC000006BC0000069C00000C0
:1000900067C0000065C0000063C0000061C00000D0
:1000A0005FC000005DC000005BC0000059C00000E0
:1000B00057C0000055C0000053C0000051C00000F0
:1000C0004FC000004DC000004BC0000049C0000000
:1000D00047C0000045C0000043C0000041C0000010
:1000E0003FC000004E414E494E495459494E46CDFD
:1000F000CCCC3D0AD7233C17B7D13877CC2B3295DF
:1001000095E6241FB14F0A000020410000C84200BC
:10011000401C4620BCBE4CCA1B0E5AAEC59D740086
:1001200011241FBECFEFD1E2DEBFCDBF00E00CBF78
:1001300015E0A0E0B2E0EEE8FAE100E00BBF02C09B
:1001400007900D92A23BB107D9F72EE0A2EBB5E0E4
:1001500001C01D92AA35B207E1F797D10C94450D65
:100160004FCF21E033272817390709F408952227B4
:100170002817390779F0019700000000000021E0FE
:1001800033272817390729F000000000000000007D
:10019000F2CF08958FEF9FEF0000000000000000F5
:1001A0000000000000000000000000000000E3CF9D
:1001B0002F923F924F925F926F927F928F929F9277
:1001C000AF92BF92CF92DF92EF92FF920F931F9365
:1001D000CF93DF93209123063091570EF894EDB61C
:1001E000FEB67894E5E2F6E0220FCBE0D2E0C20F53
:1001F000D11D1991D881C12F18811A3A21F080910F
:100200002306912DF4C6220FE20FF11DE192F08238
:100210002091560E3091240640914506232B242B25
:10022000309123064091570E68E0889433953770DB
:10023000441F411D742F422319F06A95B9F7E8CF86
:10024000309323067093570EE5E2F6E0330F330F39
:10025000E30FF11D21913081F8942DBF3EBF7894BA
:10026000DF91CF911F910F91FF90EF90DF90CF9092
:10027000BF90AF909F908F907F906F905F90852DF3
:100280004F90942D3F90632D2F90722D0895EAE9A1
:10029000F2E0E80FF11D8491089501020408102096
:1002A0004080CF92DF92EF92FF926B017C016091D0
:1002B0000702709108028091090290910A02A70139
:1002C000960117D5181624F481E08093B9050FC064
:1002D00020910302309104024091050250910602E0
:1002E000C701B60106D5181614F41092B90580910D
:1002F000B905882311F0899A03C081B38C7F81BB33
:10030000FF90EF90DF90CF900895CF92DF92EF9221
:10031000FF92CF93DF93C82FD92FCB01BA0120E0F2
:1003200030E040E251E4E9D46B017C01FFD3CB0122
:100330006AE070E095D69F938F9320E030E040E232
:1003400051E4C701B6018AD3F1D37F936F932BE1B8
:1003500032E03F932F93DF93CF933BD78DB79EB778
:1003600008960FB6F8949EBF0FBE8DBFDF91CF9158
:10037000FF90EF90DF90CF900895CF93DF93EC0143
:10038000BC017F7780E090E002D420E030E040E2E2
:1003900051E464D326E636E646EE5FE3AED420E0D1
:1003A00030E040E052E4F2D2DD230CF49058DF91CB
:1003B000CF9108959FB191708FB181708917E1F34A
:1003C00008950F931F93CF93DF93F894809A81B38E
:1003D00011BA8FE19EE40197F1F700C00000809808
:1003E000889AE8DFE7DFE6DFC0E1D0E0E3DF88E21C
:1003F000B8DE789B02C088E2B4DE2197B9F7C0E18D
:10040000D0E000E010E0D6DF88E2ABDE789B06C0EB
:10041000000F111F016088E2A4DE02C0000F111F4F
:10042000219789F70AC0C6DF88E29BDE789B02C06D
:1004300088E297DE2197B9F703C0C8E0D0E0F3CF98
:100440007894C801DF91CF911F910F910895109278
:10045000C000E1ECF0E01082A2ECB0E01C928081E0
:1004600080618083808188608083808180688083D0
:100470008C9182608C938C9184608C9387E690E061
:100480009093C5008093C40008952FEF83ED90E30F
:10049000215080409040E1F700C00000D8DFCED46A
:1004A00041E061EC73E081E08BD441E063E772E00E
:1004B00082E086D478947CDEFECFE0ECF0E09081A0
:1004C00095FFFDCF8093C6000895CF93DF93EC0195
:1004D0008881882329F02196F0DF89918111FCCF52
:1004E000DF91CF910895CF93DF93CDB7DEB7C25898
:1004F000D1090FB6F894DEBF0FBECDBF6E0185E601
:10050000C80ED11C992493940F2EFDE4AF2EF2E077
:10051000BF2EF02D8091B605882309F42EC1F894E2
:100520006FEB75E0CE01019610D6CE010196CDDFBE
:100530008DE0C3DF1092B6058091B7059091B805A4
:1005400018161906ACF4FE0131967F0100E010E0A8
:10055000F701808190E0DAD5F70181937F010F5F89
:100560001F4F2091B7053091B8050217130784F388
:1005700043E050E061E272E0CE010196EDD5892BB7
:1005800009F0EAC061E272E0CE010196D5D5892B6F
:1005900009F045C085E292E098DF40910702509152
:1005A00008026091090270910A02CE0182589F4FA1
:1005B000ACDECE0182589F4F88DF8DE292E085DF6E
:1005C000409103025091040260910502709106026D
:1005D000CE0182589F4F99DECE0182589F4F75DF22
:1005E0008091BA05882321F088E392E06EDF03C092
:1005F00082E492E06ADF80910102909102029F936F
:100600008F93BF92AF92DF92CF92E3D5C6015DDFA9
:100610000F900F900F900F900F900F90ADC062E66B
:1006200072E0CE01019688D5892B19F490920002D0
:10063000A3C069E672E0CE0101967ED5892B19F43C
:100640001092000299C06DE370E0CE01019669D569
:10065000892B09F47DC08DE390E0F60191838083BE
:10066000B601CE0101965AD58C01B60180E090E02A
:1006700055D57C0161E772E0C8015ED5892BB1F4E4
:1006800066E672E0C70158D5892B19F49092BA0535
:1006900073C06DE672E0C7014FD5892B19F4109233
:1006A000BA056AC089E792E010DF66C06CE872E0C4
:1006B000C80142D5892BB9F4C70108D52B013C01EB
:1006C00020E030E0A901C6D1882349F0409207021A
:1006D000509208026092090270920A024DC085E9A8
:1006E00092E0F3DE49C062EB72E0C80125D5892BA8
:1006F000B9F4C701EBD42B013C0120E030E0A901A3
:10070000A9D1882349F040920302509204026092DA
:1007100005027092060230C085E992E0D6DE2CC058
:100720006CEB72E0C80108D5892B71F4C701D1D4F4
:10073000823091052CF090930202809301021CC03C
:1007400087EC92E0C2DE18C089E792E0BEDE14C0FA
:1007500089E792E0BADE10C044E050E06FED72E04D
:10076000CE010196F9D4892B21F484EE92E0ADDE1E
:1007700003C089E792E0A9DE789484E690E0D5D3BF
:10078000C9CECF93DF93CDB7DEB76A970FB6F89493
:10079000DEBF0FBECDBF819A00E010E0CE01019612
:1007A0007C01212C312C0F2EF7E0AF2EF2E0BF2E72
:1007B000F02D0F2EF3E08F2EF2E09F2EF02D0F2E56
:1007C000FAE8CF2EF5E0DF2EF02DFBDDD6DD2B0194
:1007D0003C0167DD80910002882309F475C0809197
:1007E0000102909102020817190709F06DC080916B
:1007F000BA058823A9F1498E5A8E6B8E7C8EF5013D
:1008000080819181A281B3818F8B988FA98FBA8FBC
:10081000F40180819181A281B3818D8B9E8BAF8BFE
:10082000B88F8091B9051F928F938E898F938D8990
:100830008F93888D8F938F898F938A8D8F93898DD6
:100840008F93DF92CF92FF92EF92C3D4C7013DDE28
:100850000FB6F894DEBF0FBECDBF022D132D34C0EE
:10086000B301A201C70151DDC7012FDE87E995E081
:100870002CDE4091070250910802609109027091AC
:100880000A02C70142DDC70120DE87E995E01DDECF
:10089000409103025091040260910502709106029A
:1008A000C70133DDC70111DE87E995E00EDE8091D7
:1008B000B905882321F08AE995E007DE03C085EABF
:1008C00095E003DE022D132D0F5F1F4F88EE93E09E
:1008D0002CD37BCF1F920F920FB60F9211240BB621
:1008E0000F928F939F93EF93FF93E091B405F09154
:1008F000B5058091C600E154FA4F8083E091B405BC
:10090000F091B505E154FA4F80818A3091F0E09181
:10091000B405F091B505E154FA4F80818D3049F06E
:10092000E091B405F091B505E154FA4F8081811151
:1009300018C0E091B405F091B505E154FA4F10826A
:1009400081E08093B6058091B4059091B50501973B
:100950009093B8058093B7051092B5051092B40531
:1009600009C08091B4059091B50501969093B505A5
:100970008093B405FF91EF919F918F910F900BBEE3
:100980000F900FBE0F901F9018955058BB27AA27A5
:100990000ED075C166D130F06BD120F031F49F3F9D
:1009A00011F41EF45BC10EF4E095E7FB51C1E92F91
:1009B00077D180F3BA17620773078407950718F099
:1009C00071F49EF58FC10EF4E0950B2EBA2FA02D79
:1009D0000B01B90190010C01CA01A0011124FF27EC
:1009E000591B99F0593F50F4503E68F11A16F040E7
:1009F000A22F232F342F4427585FF3CF46953795E6
:100A00002795A795F0405395C9F77EF41F16BA0BAA
:100A1000620B730B840BBAF09150A1F0FF0FBB1F58
:100A2000661F771F881FC2F70EC0BA0F621F731FA1
:100A3000841F48F4879577956795B795F7959E3FFE
:100A400008F0B3CF9395880F08F09927EE0F97958C
:100A500087950895D9D008F481E008950CD00FC18E
:100A600007D140F0FED030F021F45F3F19F0F0C024
:100A7000511139C1F3C014D198F39923C9F3552307
:100A8000B1F3951B550BBB27AA2762177307840781
:100A900038F09F5F5F4F220F331F441FAA1FA9F337
:100AA00033D00E2E3AF0E0E830D091505040E69529
:100AB000001CCAF729D0FE2F27D0660F771F881F8A
:100AC000BB1F261737074807AB07B0E809F0BB0B79
:100AD000802DBF01FF2793585F4F2AF09E3F51059D
:100AE00068F0B6C000C15F3FECF3983EDCF386953A
:100AF00077956795B795F7959F5FC9F7880F911D13
:100B00009695879597F90895E1E0660F771F881FFE
:100B1000BB1F621773078407BA0720F0621B730BB1
:100B2000840BBA0BEE1F88F7E095089504D0689403
:100B3000B111D9C00895BCD088F09F5790F0B92F5B
:100B40009927B751A0F0D1F0660F771F881F991F22
:100B50001AF0BA95C9F712C0B13081F0C3D0B1E034
:100B60000895C0C0672F782F8827B85F39F0B93F44
:100B7000CCF3869577956795B395D9F73EF4909524
:100B80008095709561957F4F8F4F9F4F0895E894A2
:100B900009C097FB3EF490958095709561957F4FC5
:100BA0008F4F9F4F9923A9F0F92F96E9BB27939573
:100BB000F695879577956795B795F111F8CFFAF483
:100BC000BB0F11F460FF1BC06F5F7F4F8F4F9F4FB4
:100BD00016C0882311F096E911C0772321F09EE812
:100BE000872F762F05C0662371F096E8862F70E078
:100BF00060E02AF09A95660F771F881FDAF7880F52
:100C00009695879597F90895990F0008550FAA0BA7
:100C1000E0E8FEEF16161706E807F907C0F012160F
:100C20001306E407F50798F0621B730B840B950B12
:100C300039F40A2661F0232B242B252B21F4089567
:100C40000A2609F4A140A6958FEF811D811D089504
:100C500097F99F6780E870E060E008959FEF80EC6F
:100C6000089500240A941616170618060906089512
:100C700000240A9412161306140605060895092E78
:100C80000394000C11F4882352F0BB0F40F4BF2BE7
:100C900011F460FF04C06F5F7F4F8F4F9F4F089527
:100CA00057FD9058440F551F59F05F3F71F047951D
:100CB000880F97FB991F61F09F3F79F08795089502
:100CC000121613061406551FF2CF4695F1DF08C021
:100CD000161617061806991FF1CF8695710561053E
:100CE00008940895E894BB2766277727CB0197F9E6
:100CF00008958ADF08F48FEF08950BD0C0CFB1DFDD
:100D000028F0B6DF18F0952309F0A2CFA7CF112461
:100D1000EACFC6DFA0F3959FD1F3950F50E0551FA2
:100D2000629FF001729FBB27F00DB11D639FAA2740
:100D3000F00DB11DAA1F649F6627B00DA11D661F8F
:100D4000829F2227B00DA11D621F739FB00DA11DB0
:100D5000621F839FA00D611D221F749F3327A00D6A
:100D6000611D231F849F600D211D822F762F6A2F06
:100D700011249F5750408AF0E1F088234AF0EE0F8B
:100D8000FF1FBB1F661F771F881F91505040A9F798
:100D90009E3F510570F05CCFA6CF5F3FECF3983ECD
:100DA000DCF3869577956795B795F795E7959F5FFF
:100DB000C1F7FE2B880F911D9695879597F9089599
:100DC000CF93DF93C82FD42FE82FF0E0EE0FFF1F53
:100DD000EE0FFF1F9F012B5D394FF901A281B381F7
:100DE0006C93CD010197FC0170830197FC01108287
:100DF0005597F901B183A0838C2F49DADD2341F0A7
:100E0000982F90958091560E98239093560E05C07A
:100E10009091560E982B9093560E80912306C813EE
:100E200001C0F6D9DF91CF91089582E084BD9AEF99
:100E300097BD80936E0083E085BD0895CF93DF93C7
:100E4000F8948EEF8093560E109245061092240669
:100E50001092230681E08093570EC5E2D6E085E428
:100E600097E0998388839B838A8385E498E09D83B8
:100E70008C839F838E8385E499E0998788879B87FD
:100E80008A8785E49AE09D878C879F878E8785E493
:100E90009BE0998B888B9B8B8A8B85E49CE09D8B58
:100EA0008C8B9F8B8E8B85E49DE0998F888F9B8F99
:100EB0008A8F85E49EE09D8F8C8F9F8F8E8F8AEA2C
:100EC00080934606809346078093460880934609A0
:100ED0008093460A8093460B8093460C8093460D80
:100EE000A4DFEDB7FEB7A881B98185818C93A88175
:100EF000B981848111978C93A881B98183811297DC
:100F00008C93A881B981828113978C938881998170
:100F10002181FC01349720838881998105979EBFA8
:100F20008DBF7894DF91CF9108959C019FB7F8947D
:100F3000E0912306F0E0EE0FFF1FEA5BF14F3183F3
:100F40002083209124068091570E822B80932406C3
:100F50009FBF2EC908951F920F920FB60F921124B2
:100F60000BB60F922F933F934F935F938F939F9363
:100F7000AF93BF93EF93FF938091BB059091BC0516
:100F8000A091BD05B091BE050196A11DB11D809334
:100F9000BB059093BC05A093BD05B093BE053091F1
:100FA0002406E6E4FEE046E55EE021E080819181F2
:100FB000019781939193892B19F4822F809538237F
:100FC000220FE417F50791F730932406FF91EF9174
:100FD000BF91AF919F918F915F914F913F912F91D1
:100FE0000F900BBE0F900FBE0F901F901895AC0185
:100FF000279A2F982FEF31EE74E021503040704047
:10100000E1F700C0000060E080E05523FCF0262FEF
:10101000382F95B1905895B99FEFE0E772E0915065
:10102000E0407040E1F700C0000095B1905895B9DC
:101030009FEFE9E678E19150E0407040E1F700C0B1
:1010400000002F5F3F4F421753071CF79FEFE3E26B
:1010500024EF9150E0402040E1F700C00000D5CFE0
:1010600097FB072E16F4009406D077FD08D01AD00F
:1010700007FC05D03EF4909581959F4F089570959B
:1010800061957F4F0895A29FB001B39FC001A39FB8
:10109000700D811D1124911DB29F700D811D1124B1
:1010A000911D0895AA1BBB1B51E107C0AA1FBB1FBE
:1010B000A617B70710F0A61BB70B881F991F5A95E4
:1010C000A9F780959095BC01CD01089566277727F3
:1010D0009DC2FC0188279927E89421912032E9F3E9
:1010E000293010F02E30C8F32B3239F02D3231F484
:1010F000689403C066D0820F911D219120532A303D
:10110000C8F31EF4909581959F4F0895911108950D
:1011100081548A5108F4805E855A089542EB55E067
:1011200029C0FC018191861721F08823D9F79927DE
:1011300008953197CF010895FB01DC018D91019055
:1011400080190110D9F3990B0895FB01DC0101907E
:101150000D920020E1F70895FB01DC014150504061
:1011600030F08D910190801919F40020B9F7881B97
:10117000990B0895FA01A191B081009719F4109785
:10118000E1F0CD01DC01CD010D90002011F4C00192
:1011900013C0FB012191222319F02015D9F7F3CFB9
:1011A000FB012191201519F41E92119606C02223ED
:1011B000C1F70D900020A1F7D001FA01A193B083EF
:1011C00008957AE0979F902D879F802D910D11248F
:1011D00008950F931F93CF93DF93CDB7DEB72E976C
:1011E0000FB6F894DEBF0FBECDBF0E891F8986E013
:1011F0008C831A8309838FEF9FE79E838D83AE01D3
:10120000465E5F4F688D798DCE01019611D02F819A
:101210003885F801E20FF31F10822E960FB6F8946E
:10122000DEBF0FBECDBFDF91CF911F910F9108950B
:101230002F923F924F925F926F927F928F929F92E6
:10124000AF92BF92CF92DF92EF92FF920F931F93D4
:10125000CF93DF93CDB7DEB72C970FB6F894DEBFF0
:101260000FBECDBF7C016B018A01FC011782168283
:10127000838181FFB0C1CE0101964C01F7019381BA
:10128000F60193FD859193FF81916F01882309F405
:101290009EC1853239F493FD859193FF81916F0151
:1012A000853221F4B70190E04DD3E8CF512C312C99
:1012B00020E02032A0F48B3269F030F4803259F013
:1012C000833269F420612CC08D3239F0803339F4D7
:1012D000216026C02260246023C0286021C027FD31
:1012E00027C030ED380F3A3078F426FF06C0FAE018
:1012F0005F9E300D1124532E13C08AE0389E300DAE
:101300001124332E20620CC08E3221F426FD5FC1E1
:10131000206406C08C3611F4206802C0883641F47F
:10132000F60193FD859193FF81916F018111C1CFEA
:10133000982F9F7D9554933028F40C5F1F4FFFE347
:10134000F9830DC0833631F0833771F0833509F0AE
:1013500057C021C0F801808189830E5F1F4F44244C
:101360004394512C540114C03801F2E06F0E711CEB
:10137000F801A080B18026FF03C0652D70E002C097
:101380006FEF7FEFC5012C87D2D22C0183012C8512
:101390002F77222E16C03801F2E06F0E711CF80173
:1013A000A080B18026FF03C0652D70E002C06FEF02
:1013B0007FEFC5012C87B0D22C012C852068222E0E
:1013C000830123FC19C0832D90E048165906A0F430
:1013D000B70180E290E0B6D23A94F5CFF50127FC50
:1013E000859127FE81915F01B70190E0ABD231106A
:1013F0003A94F1E04F1A51084114510479F7DEC0D4
:10140000843611F0893631F5F80127FF07C0608175
:101410007181828193810C5F1F4F08C0608171814F
:10142000072E000C880B990B0E5F1F4F2F76722E24
:1014300097FF09C090958095709561957F4F8F4F6C
:101440009F4F2068722E2AE030E0A401B3D2A82E6C
:10145000A81843C0853729F42F7EB22E2AE030E049
:1014600025C0F22FF97FBF2E8F36C1F018F48835D2
:1014700079F0ADC0803719F0883721F0A8C02F2F40
:101480002061B22EB4FE0DC08B2D8460B82E09C031
:1014900024FF0AC09F2F9660B92E06C028E030E0D6
:1014A00005C020E130E002C020E132E0F801B7FEE3
:1014B00007C060817181828193810C5F1F4F06C0DC
:1014C0006081718180E090E00E5F1F4FA40172D2B5
:1014D000A82EA818FB2DFF777F2E76FE0BC0372D88
:1014E0003E7FA51450F474FE0AC072FC08C0372D6C
:1014F0003E7E05C0BA2C372D03C0BA2C01C0B52CD6
:1015000034FF0DC0FE01EA0DF11D8081803311F41E
:10151000397E09C032FF06C0B394B39404C0832F50
:10152000867809F0B39433FD12C030FF06C05A2C00
:10153000B31418F4530C5B18B32CB31460F4B70154
:1015400080E290E03C87FED1B3943C85F6CFB314A3
:1015500010F43B1801C0312C34FF11C0B70180E3F7
:1015600090E03C87EFD13C8532FF16C031FD03C0CF
:1015700088E790E002C088E590E0B7010CC0832FB7
:10158000867851F031FF02C08BE201C080E237FD66
:101590008DE2B70190E0D6D1A51430F4B70180E315
:1015A00090E0D0D15A94F8CFAA94F401EA0DF11D3D
:1015B0008081B70190E0C6D1A110F6CF332009F4A5
:1015C0005DCEB70180E290E0BDD13A94F7CFF7014C
:1015D0008681978102C08FEF9FEF2C960FB6F8940B
:1015E000DEBF0FBECDBFDF91CF911F910F91FF9056
:1015F000EF90DF90CF90BF90AF909F908F907F90B3
:101600006F905F904F903F902F9008956F927F92D0
:101610008F929F92AF92BF92CF92DF92EF92FF9202
:101620000F931F93CF93DF93EC017B01611571053D
:1016300019F0DB018D939C938E010F5F1F4F788013
:10164000872D90E049D1892B11F0E801F5CFBDE25B
:101650007B1205C00F5F1F4F7980C1E008C0EBE22D
:101660007E1204C08E010E5F1F4F7980C0E06801BA
:10167000F1E0CF1AD10843E050E06CEE70E0C60113
:1016800033D1892BE9F4680122E0C20ED11C45E078
:1016900050E067EE70E0C60127D1892B21F4680184
:1016A00087E0C80ED11CE114F10419F0D701CD92E6
:1016B000DC92C111F9C060E070E080E89FE7FDC0F6
:1016C00043E050E064EE70E0C6010ED1892B51F486
:1016D000E114F10409F4EDC00E5F1F4FF70111830F
:1016E0000083E7C0680160E070E0CB0100E010E03B
:1016F000F601D0EDD70DDA3050F52C2F2260622E96
:101700002C2F2870C2FF05C0211127C00F5F1F4F6B
:1017100024C0222311F001501109A5E0B0E09B0183
:10172000AC01A9D14B015C01880C991CAA1CBB1C03
:10173000C501B4016D0F711D811D911D6839A9E9A5
:101740007A078A07A9E19A0740F0C66005C0DE3F24
:1017500051F4C3FD44C0C8606C2EBFEFCB1ADB0A46
:101760007080C62DC5CF2D2F2F7D2531C1F540812D
:101770004D3211F4C06106C04B3221F0319621E0A8
:1017800030E006C03296D60111964C9122E030E04E
:10179000A0EDA40FAA3018F0E21BF30B20C040E02C
:1017A00050E04038BCE05B075CF49A01220F331F25
:1017B000220F331F420F531F440F551F4A0F511D55
:1017C0003196DF0111972C91A0EDA20FAA3048F3BA
:1017D000C4FF03C0519541955109040F151FC1FF66
:1017E00007C0E114F10421F03197D701ED93FC9388
:1017F000CED9C370C33019F06B017C0106C06B01F8
:101800007C01F7FAF094F7F8F09420E030E0A901B9
:10181000C701B6011FD9882309F443C017FF06C0CA
:10182000119501951109C3E0D1E002C0CBE1D1E0EF
:101830005E01B8E1AB1AB1084601BE2DAF2D90E2B2
:10184000E92EF12C0E151F057CF0FE012591359136
:1018500045915491B4018B2F9A2F4FDA4B01B82F39
:10186000A92F0E191F09EECF2497F594E794CA15F6
:10187000DB0541F76401EB2EFA2E8E2D880F8F2D9C
:10188000881F8F3F41F020E030E0A901C701B60179
:10189000E1D8811106C082E290E09093590E8093C6
:1018A000580EC701B60109C060E070E080E89FEF04
:1018B00004C060E070E080EC9FE7DF91CF911F9162
:1018C0000F91FF90EF90DF90CF90BF90AF909F90DF
:1018D0008F907F906F9008959111CAC0803219F057
:1018E00089508550D0F70895FB01DC0141505040EC
:1018F00088F08D9181341CF08B350CF4805E6591FD
:1019000061341CF06B350CF4605E861B611171F361
:10191000990B0895881BFCCFFC0105906150704025
:101920000110D8F7809590958E0F9F1F0895FC01A8
:101930006150704001900110D8F7809590958E0FFE
:101940009F1F08950F931F93CF93DF93FB01238174
:1019500021FD03C08FEF9FEF28C022FF16C04681F4
:101960005781248135814217530744F4A081B18106
:101970009D012F5F3F4F318320838C9326813781D8
:101980002F5F3F4F3783268310C0EB01092F182F9D
:101990000084F185E02D1995892BE1F68E819F81D8
:1019A00001969F838E83812F902FDF91CF911F917E
:1019B0000F910895FA01AA27283051F1203181F1C1
:1019C000E8946F936E7F6E5F7F4F8F4F9F4FAF4F47
:1019D000B1E03ED0B4E03CD0670F781F891F9A1F5A
:1019E000A11D680F791F8A1F911DA11D6A0F711D0E
:1019F000811D911DA11D20D009F468943F912AE01A
:101A0000269F11243019305D3193DEF6CF01089501
:101A1000462F4770405D4193B3E00FD0C9F7F6CF32
:101A2000462F4F70405D4A3318F0495D31FD4052FA
:101A3000419302D0A9F7EACFB4E0A6959795879590
:101A400077956795BA95C9F700976105710508956F
:101A50009B01AC010A2E069457954795379527951B
:101A6000BA95C9F7620F731F841F951FA01D0895B3
:101A700099278827089507DBA59F900DB49F900DA7
:0E1A8000A49F800D911D11240895F894FFCFAE
:101A8E000103000000A1420000A0424606460746A0
:101A9E00084609460A460B460C460D25642E25645B
:101AAE000073657400544C4F57203D2000460D5472
:101ABE0048494748203D2000460D484558204F4E86
:101ACE000D00460D484558204F46460D00504552D4
:101ADE00494F44203D202564207365636F6E647307
:101AEE000D00736574206F6E00736574206F6666EB
:101AFE00007365742068657800496E636F72726555
:101B0E00637420636F6D6D616E640D007365742078
:101B1E00746C6F7700496E636F72726563742074B4
:101B2E00656D70657261747572652076616C756530
:101B3E000D0073657420746869676800736574209E
:101B4E00706572696F6400496E636F72726563745B
:101B5E0020706572696F642076616C75650D006822
:101B6E00656C700048454C50202D20646973706C74
:101B7E006179732061206D65737361676520736889
:101B8E006F77696E6720636F6D6D616E6473206130
:101B9E006E64206272696566206465736372697033
:101BAE0074696F6E730D53455420202D2072657429
:101BBE0075726E73207468652076616C756573201E
:101BCE006F6620616C6C2074686520706172616D47
:101BDE00657465722073657474696E67732028541A
:101BEE004C4F572C2054484947482C204845582CD8
:101BFE0020504552494F44290D534554204F4E20F5
:101C0E00202D20656E61626C657320636F6E747239
:101C1E006F6C6C657220746F2073656E64207265D4
:101C2E006164696E677320746F20686F73740D53EF
:101C3E004554204F4646202D2064697361626C65C1
:101C4E007320636F6E74726F6C6C65722066726F48
:101C5E006D2073656E64696E672072656164696E6E
:101C6E00677320746F20686F73740D53455420484A
:101C7E0045583D3C4F4E206F72204F46463E202D1C
:101C8E002073776974636865732072656164696E29
:101C9E006720666F726D6174206265747765656E1C
:101CAE0020415343494920616E64204845582028FD
:101CBE007365652062656C6F77290D53455420540A
:101CCE004C4F573D3C76616C75653E2020202D2093
:101CDE006C6F772074656D706572617475726520B6
:101CEE0073657474696E672E2049662074656D7015
:101CFE002069732062656C6F7720746869732C207D
:101D0E004C45442F6865617465722073686F756CFD
:101D1E0064206265207475726E6564206F6E2E0D80
:101D2E005345542054484947483D3C76616C75658F
:101D3E003E202D20686967682074656D706572613C
:101D4E00747572652073657474696E672E204966AA
:101D5E002074656D702069732061626F76652074E2
:101D6E006869732C204C45442F6865617465722038
:101D7E0073686F756C64206265207475726E65642D
:101D8E00206F66662E0D53455420504552494F44E0
:101D9E003D3C76616C75653E20202D2074696D6525
:101DAE0020696E207365636F6E647320626574774D
:101DBE0065656E2072656164696E67732073656E0A
:101DCE007420746F2074686520686F73742E2041C0
:101DDE006E20696E74656765722076616C7565201C
:101DEE006E6F74206C657373207468616E20322C74
:101DFE00206E6F74206772656174657220746861FD
:101E0E006E2036353533352E0D0025782025782079
:101E1E0025782025640D002C20004845415445525C
:101E2E00204F4E0D00484541544552204F46460D19
:021E3E000000A2
:00000001FF
